{
  "unsignedTx": "0200000001d18790c527dfc89d6768c9d5b55024fdcf8877dfb993063a1935be37504263980100000000ffffffff020000000000000000306a2edfeff88825158607bac5cd2d7d0d287d43a4814e2dc19231e0d892498528cf0abd0af5789d6530bd97bf3a4202cea00f000000000000160014ba6b61f7f996ed85d5e54d96cae7f40537a3943400000000",
  "utxos": {
    "9863425037be35193a0693b9df7788cffd2450b5d5c968679dc8df27c59087d1:1": {
      "scriptPubKey": "0014ba6b61f7f996ed85d5e54d96cae7f40537a39434",
      "value": 4300
    }
  }
}